:020000040800F2
:1000000000000220F9170008391100083B11000810
:100010003D1100083F1100084111000800000000D8
:10002000000000000000000000000000D13E0008B9
:100030004311000800000000713F0008113C000857
:10004000491800084918000849180008491800080C
:1000500049180008491800084918000849180008FC
:1000600049180008491800084918000845110008F7
:1000700049180008551100084918000865110008C2
:100080004918000849180008751100088511000872
:1000900095110008A5110008B511000849180008BD
:1000A00049180008491800084918000849180008AC
:1000B000C5110008D51100084918000849180008A2
:1000C000491800084918000849180008491800088C
:1000D000491800084918000849180008491800087C
:1000E000491800084918000849180008491800086C
:1000F000491800084918000849180008E5110008C7
:10010000491800084918000849180008F5110008A6
:1001100005120008151200084918000825120008E9
:100120003512000849180008491800084918000845
:1001300049180008000000000000000045120008F7
:1001400055120008651200087512000849180008C9
:1001500049180008491800084918000849180008FB
:1001600049180008491800084918000849180008EB
:1001700049180008491800080000000000000000AD
:080180004918000849180008A5
:1001900010B5054C237833B9044B13B10448AFF3C1
:1001A00000800123237010BD5808002000000000CB
:1001B0008C5E000808B5034B1BB103490348AFF33D
:1001C000008008BD000000005C0800208C5E000874
:1001D00053B94AB9002908BF00281CBF4FF0FF31AE
:1001E0004FF0FF3000F06EB9ADF1080C6DE904CEB0
:1001F00000F006F8DDF804E0DDE9022304B0704702
:100200002DE9F047089D04468C46002B40F0838082
:100210008A42174647D9B2FA82F242B1C2F12000AF
:1002200024FA00F09140974040EA010C94404FEAD4
:100230001748230CBCFBF8F61FFA87FE08FB16C113
:1002400043EA014306FB0EF1994209D9FB1806F176
:10025000FF3080F01981994240F21681023E3B4402
:100260005B1AA4B2B3FBF8F008FB103344EA034472
:1002700000FB0EFEA64509D93C1900F1FF3380F0C2
:100280000581A64540F2028102383C4440EA06401E
:10029000A4EB0E0400261DB1D4400023C5E90043A1
:1002A0003146BDE8F08702B9FFDEB2FA82F2002AD9
:1002B00050D1CB1B4FEA174E1FFA87F80126B3FB2C
:1002C000FEFC210C0EFB1C3341EA034108FB0CF33E
:1002D0008B4207D979180CF1FF3002D28B4200F221
:1002E000E9808446C91AA3B2B1FBFEF00EFB1011DF
:1002F00043EA014408FB00F8A04507D93C1900F186
:10030000FF3302D2A04500F2D9801846A4EB0804BE
:1003100040EA0C40BFE78B4209D9002D00F0B180C4
:100320000026C5E9000130463146BDE8F087B3FA42
:1003300083F6002E4AD18B4202D3824200F2B8806B
:10034000841A61EB030101208C46002DA8D0C5E979
:10035000004CA5E7C2F1200320FA03F6974001FA0A
:1003600002F04FEA174ED9403043030CB1FBFEF6C2
:100370001FFA87F80EFB161143EA014306FB08F14A
:10038000994204FA02F409D9FB1806F1FF3C80F007
:100390008D80994240F28A80023E3B445B1A81B2D2
:1003A000B3FBFEF00EFB103341EA034100FB08F300
:1003B0008B4207D9791800F1FF3C73D28B4271D977
:1003C00002383944CB1A40EA064678E7C6F1200CD9
:1003D00003FA06F422FA0CF31C4320FA0CF701FA94
:1003E00006F34FEA144E21FA0CF11F433B0CB1FB0C
:1003F000FEF91FFA84F80EFB191143EA014109FBCB
:1004000008FA8A4502FA06F200FA06F308D96118DA
:1004100009F1FF3048D28A4546D9A9F102092144A1
:10042000A1EB0A01BFB2B1FBFEF00EFB101147EACF
:10043000014700FB08F8B84507D9E71900F1FF317B
:100440002ED2B8452CD90238274440EA0940A7EB00
:100450000807A0FB02894F45C64649461AD317D064
:100460005DB1B3EB0E0267EB010707FA0CFCF2403B
:100470004CEA0202F740C5E9002700263146BDE8F4
:10048000F0872E4628460BE70646E9E61846FDE6C5
:100490004345E5D2B8EB020E69EB04010138DFE712
:1004A0000846D2E760468DE78146B9E7664675E7BC
:1004B00030464AE7ACF1020C394413E702383C44B9
:1004C00024E700BF704700BF844641EA000313F0F1
:1004D00003036DD1403A41D351F8043B40F8043B4B
:1004E00051F8043B40F8043B51F8043B40F8043B0E
:1004F00051F8043B40F8043B51F8043B40F8043BFE
:1005000051F8043B40F8043B51F8043B40F8043BED
:1005100051F8043B40F8043B51F8043B40F8043BDD
:1005200051F8043B40F8043B51F8043B40F8043BCD
:1005300051F8043B40F8043B51F8043B40F8043BBD
:1005400051F8043B40F8043B51F8043B40F8043BAD
:1005500051F8043B40F8043B403ABDD2303211D34D
:1005600051F8043B40F8043B51F8043B40F8043B8D
:1005700051F8043B40F8043B51F8043B40F8043B7D
:10058000103AEDD20C3205D351F8043B40F8043B4D
:10059000043AF9D2043208D0D2071CBF11F8013B4B
:1005A00000F8013B01D30B8803806046704700BF11
:1005B000082A13D38B078DD010F003038AD0C3F120
:1005C0000403D21ADB071CBF11F8013B00F8013B02
:1005D00080D331F8023B20F8023B7BE7043AD9D3C1
:1005E000013A11F8013B00F8013BF9D20B78037096
:1005F0004B7843708B7883706046704700B585B048
:10060000002300930193029303933848384A026011
:100610004FF480324260836001220261027680F8EA
:100620002030C36233498162C3600623C36180F80E
:100630003020426101F0D0F9002841D10C23009311
:1006400001230193022302936946284801F094FA9A
:10065000002838D10D230093022301930023029335
:100660006946224801F088FA80BB0E2300930323D9
:1006700001930223029369461C4801F07DFA40BBB6
:100680000F23009304230193002302936946174824
:1006900001F072FA00BB1023009305230193694611
:1006A000124801F069FAD0B911230093062301938F
:1006B00069460E4801F060FAA0B905B05DF804FB88
:1006C00000F070FBBAE700F06DFBC3E700F06AFBD7
:1006D000CBE700F067FBD3E700F064FBDBE700F05B
:1006E00061FBE1E700F05EFBE7E700BF7408002074
:1006F000002001400100000F30B589B000230393B2
:100700000493059306930793026803F1804303F56E
:1007100090339A4201D009B030BD044600250195BE
:1007200003F58C335A6C42F480725A645A6C02F4AA
:1007300080720192019A02951A6B42F004021A63C8
:100740001B6B03F004030293029B3C2303930323DC
:100750000493059503A9144801F020FF1348144B96
:10076000036045608560C5604FF4806303614FF4AA
:10077000006343614FF4005383614FF48073C3619E
:100780000562456201F058FD58B9084BA3639C63AC
:1007900000220521122001F0A3FC122001F0D4FC5C
:1007A000B9E700F0FFFAF0E700080240BC080020BB
:1007B0001064024008B50E480E4B036007234360E7
:1007C00000238360C3604FF4003202614FF4801253
:1007D00042610376437601228276C37603774277BD
:1007E00001F093FA00B908BD00F0DCFAFBE700BFA6
:1007F000200900200064004008B50E480E4B03603D
:100800000723436000238360C3604FF4003202611A
:100810004FF4801242610376437601228276C376DA
:100820000377437701F071FA00B908BD00F0BAFA16
:10083000FBE700BF48090020006800402DE9F041B7
:100840008AB00023059306930793089309930368DE
:10085000684A934205D0684A934260D00AB0BDE826
:10086000F081664A136801331360012B4AD00024DB
:100870000194634B1A6B42F002021A631B6B03F084
:1008800002030193019B4FF4807305934FF002081C
:10089000CDF81880012307930327089709260996A6
:1008A000584D05A9284601F079FE4FF400730593D1
:1008B000CDF8188007940897099605A9284601F0F5
:1008C0006DFE22460521132001F00AFC132001F0E1
:1008D0003BFC22460521142001F002FC142001F00B
:1008E00033FC22460521152001F0FAFB152001F00A
:1008F0002BFC22460521162001F0F2FB162001F008
:1009000023FCABE7002300933D4B1A6C42F00072CE
:100910001A641B6C03F000730093009BA7E700238D
:100920000293374B1A6C42F080621A641B6C03F01E
:1009300080630293029B314A136801331360012BD9
:100940004AD0002404942E4B1A6B42F002021A6320
:100950001B6B03F002030493049B4FF48053059335
:100960004FF00208CDF8188001230793032708975A
:1009700009260996234D05A9284601F00FFE4FF4DC
:1009800000530593CDF8188007940897099605A998
:10099000284601F003FE224605213F2001F0A0FB7E
:1009A0003F2001F0D1FB22460521402001F098FBB9
:1009B000402001F0C9FB22460521412001F090FBB7
:1009C000412001F0C1FB22460521422001F088FBB5
:1009D000422001F0B9FB41E700230393084B1A6C56
:1009E00042F000721A641B6C03F000730393039BC4
:1009F000A7E700BF00640040006800401C09002019
:100A0000003802400004024010B582B00024009477
:100A10001E4B1A6B42F480021A631A6B02F48002B6
:100A20000092009A01941A6B42F400121A631B6B35
:100A300003F400130193019B224606210B2001F0D1
:100A40004FFB0B2001F080FB224606210D2001F018
:100A500047FB0D2001F078FB224606210F2001F014
:100A60003FFB0F2001F070FB224606212F2001F0F2
:100A700037FB2F2001F068FB22460521382001F0CA
:100A80002FFB382001F060FB02B010BD003802409F
:100A900008B5012003F057F9FBE7000008B5044A48
:100AA0000021044803F0F0F8034B186008BD00BFB4
:100AB000B05E0008910A00087009002070B58AB085
:100AC0000024059406940794089409940094284BF4
:100AD0001A6B42F004021A631A6B02F004020092CD
:100AE000009A01941A6B42F080021A631A6B02F0AA
:100AF00080020192019A02941A6B42F001021A6379
:100B00001A6B02F001020292029A03941A6B42F0ED
:100B100002021A631A6B02F002020392039A04940F
:100B20001A6B42F008021A631B6B03F0080304936C
:100B3000049B104D22464FF48071284601F018FEA8
:100B40004FF40053059306940126079605A92846FD
:100B500001F024FD4FF48073059306960794022359
:100B6000089305A9284601F019FD0AB070BD00BF21
:100B7000003802400008024008B50B480B4B0360E8
:100B80000B4B436000238360C3604FF480420261DB
:100B900043618361C361036201F0F0FD00B908BDE8
:100BA00000F000F9FBE700BF74090020005400408A
:100BB000801A060008B50B480B4B03600B4B4360D3
:100BC00000238360C3604FF480420261436183610C
:100BD000C361036201F0D2FD00B908BD00F0E2F884
:100BE000FBE700BFC809002000580040801A06003B
:100BF00008B50B480B4B03600B4B4360002383602D
:100C0000C3604FF48042026143618361C361036248
:100C100001F0B4FD00B908BD00F0C4F8FBE700BF67
:100C20001C0A0020005C0040801A06002DE9F043F9
:100C30008DB000230793089309930A930B930368DD
:100C40004B4A934208D04B4A93422AD04A4A934295
:100C50004DD00DB0BDE8F08300250095474C236BC7
:100C600043F002032363236B03F002030093009B12
:100C7000C0230793122308930123099303230A93A4
:100C800004230B9307A93E4801F088FC0195236CCF
:100C900043F400132364236C03F400130193019BBA
:100CA000D7E700250295354C236B43F002032363FD
:100CB000236B03F002030293029B4FF440630793FC
:100CC000122308930123099303230A9304230B930C
:100CD00007A92B4801F062FC0395236C43F48003C1
:100CE0002364236C03F480030393039BB1E7002583
:100CF0000495224C236B43F004032363236B03F01E
:100D000004030493049B0595236B43F001032363C1
:100D1000236B03F001030593059B4FF400730793C6
:100D20004FF01209CDF820904FF00108CDF8248043
:100D300003270A9704260B9607A9124801F02EFCF8
:100D40004FF480730793CDF82090CDF824800A9754
:100D50000B9607A90C4801F021FC0695236C43F47F
:100D600000032364236C03F400030693069B70E7DF
:100D70000054004000580040005C00400038024031
:100D800000040240000802400000024008B502686A
:100D9000034B9A4200D008BD00F072FDFBE700BF94
:100DA0000014004072B6FEE700B595B03022002175
:100DB00008A804F0E9FD0023039304930593069328
:100DC00007930193204A116C41F080511164126C19
:100DD00002F080520192019A02931C4B1A6842F46D
:100DE00080421A601B6803F480430293029B012334
:100DF00008934FF48033099302220E924FF480033C
:100E00000F9304231093A82111911292139308A811
:100E100001F092FD98B90F2303930223049300235A
:100E200005934FF4A05306934FF480530793052185
:100E300003A801F0E3FF20B915B05DF804FBFFF74C
:100E4000B1FFFFF7AFFF00BF003802400070004065
:100E500008B500F0FBFCFFF7A7FFFFF72FFEFFF739
:100E6000D3FDFFF7CBFB00F071FBFFF785FEFFF72B
:100E7000A1FEFFF7BDFE00F015F800F033F800F01A
:100E800031FB00F049FBFFF795FCFFF7B5FC00F0E4
:100E900027FA00F059FA02F0C9FEFFF7FFFD02F051
:100EA000D7FEFEE708B50D480D4B03604FF4827383
:100EB000436000238360C360036143614FF40072A9
:100EC0008261C3610362436283620A23C36202F0E8
:100ED00089F800B908BDFFF765FFFBE7700A00203D
:100EE0000030014008B50D480D4B03604FF482738C
:100EF000436000238360C360036143614FF4007269
:100F00008261C3610362436283620A23C36202F0A7
:100F100069F800B908BDFFF745FFFBE7C80A0020E4
:100F2000003C0040F0B58DB000230793089309936F
:100F30000A930B930368404A934204D03F4A93427A
:100F400039D00DB0F0BD002401943D4B5A6C42F4F1
:100F500080525A645A6C02F480520192019A0294AF
:100F60001A6B42F001021A631A6B02F0010202923C
:100F7000029A03941A6B42F002021A631B6B03F08D
:100F800002030393039BA023079302270897099466
:100F900003260A9605250B9507A92A4801F0FEFAB3
:100FA00010230793089709940A960B9507A92648DA
:100FB00001F0F4FAC5E700240494214B1A6C42F4C2
:100FC00000421A641A6C02F400420492049A0594D6
:100FD0001A6B42F004021A631A6B02F004020592C3
:100FE000059A06941A6B42F002021A631B6B03F017
:100FF00002030693069B4FF440630793022708976A
:10100000099403260A9606250B9507A90F4801F0B7
:10101000C5FA20230793089709940A960B9507A908
:10102000094801F0BBFA22460521332001F058F8A7
:10103000332001F089F884E700300140003C004093
:101040000038024000000240000402400008024054
:1010500000B583B0002200920D4B596C41F48041E1
:101060005964596C01F48041009100990192196C06
:1010700041F0805119641B6C03F080530193019B74
:101080000F216FF0010001F02BF803B05DF804FBB5
:101090000038024030B589B0044600230193214B4B
:1010A0001A6C42F020021A641B6C03F020030193B7
:1010B000019B02A903A801F077FF069BCBB901F0C1
:1010C00053FF03461848A0FB03239B0C013B174822
:1010D000174A026040F2E732C260436000230361B6
:1010E0008360836102F0DEF9054630B1284609B01D
:1010F00030BD01F039FF4300E4E70C4802F06EF820
:1011000005460028F2D1372001F01EF80F2C01D936
:101110000125EBE700222146372000F0E1FF054BD7
:101120001C60E3E70038024083DE1B43200B0020F5
:101130000014004008000020FEE7FEE7FEE7FEE79F
:10114000FEE7704708B5024801F03AF908BD00BF54
:10115000BC0C002008B5024801F032F908BD00BF00
:10116000FC0B002008B5024801F02AF908BD00BFB9
:101170005C0C002008B5024800F05CFC08BD00BF14
:101180007408002008B5024800F072FE08BD00BFD8
:101190002009002008B5024800F06AFE08BD00BF23
:1011A0002009002008B5024800F062FE08BD00BF1B
:1011B0002009002008B5024800F05AFE08BD00BF13
:1011C0002009002008B5024802F050F808BD00BF11
:1011D0006C0B002008B5024802F048F808BD00BFBB
:1011E000B40B002008B5024801F0EAF808BD00BFC2
:1011F0001C0D002008B5024801F054FF08BD00BFD7
:10120000C80A002008B5024802F0BEFB08BD00BFB6
:10121000C40D002008B5024802F0B6FB08BD00BFAF
:101220000C0E002008B5024802F020F808BD00BFEF
:10123000200B002008B5024801F0C2F808BD00BF2D
:10124000BC08002008B5024800F012FE08BD00BF2F
:101250004809002008B5024800F00AFE08BD00BF9A
:101260004809002008B5024800F002FE08BD00BF92
:101270004809002008B5024800F0FAFD08BD00BF8B
:101280004809002010B503460C4A0D490D48006876
:1012900040B10C4800680344521A934206D8094AE8
:1012A000136010BD0748084C0460F2E704F042FBED
:1012B0000C2303604FF0FF30F3E700BF0000022073
:1012C00000040000680B002058600020034AD2F898
:1012D000883043F47003C2F88830704700ED00E0B6
:1012E00000B58DB000230193029316484FF0804261
:1012F0000260436083604FF6FF72C26003618361E6
:10130000022203920493012105910693042207927D
:10131000089309910A930B9203A902F0EFF850B9D0
:1013200000230193029301A9064802F03FF928B96E
:101330000DB05DF804FBFFF735FDF1E7FFF732FD77
:10134000F6E700BF6C0B002000B58DB000230193C1
:1013500002931548154A0260436083604FF6FF729E
:10136000C26003618361022203920493012105910B
:10137000069304220792089309910A930B9203A9FA
:1013800002F0BCF850B900230193029301A906486A
:1013900002F00CF928B90DB05DF804FBFFF702FD6F
:1013A000F1E7FFF7FFFCF6E7B40B00200004004074
:1013B00070B58CB000230793089309930A930B939D
:1013C0000368B3F1804F04D0414A934242D00CB03D
:1013D00070BD0024019403F50E331A6C42F0010233
:1013E0001A641A6C02F001020192019A02941A6BBB
:1013F00042F001021A631A6B02F001020292029A91
:1014000003941A6B42F002021A631B6B03F002038F
:101410000393039B4FF40043079302260896099415
:101420000A9401250B9507A92A4801F0B7F808236B
:101430000793089609940A940B9507A9264801F08A
:10144000ADF8224605211C2000F04AFE1C2000F0C9
:101450007BFEBCE700240494204B1A6C42F002028D
:101460001A641A6C02F002020492049A05941A6B30
:1014700042F001021A631A6B02F001020592059A0A
:1014800006941A6B42F004021A631B6B03F0040308
:101490000693069B402307930225089509940A9416
:1014A0000B9507A90B4801F079F88023079308955D
:1014B00009940A940B9507A9094801F06FF8224690
:1014C00005211D2000F00CFE1D2000F03DFE7EE7F2
:1014D00000040040000002400004024000380240C6
:1014E0000008024008B50A480A4B03604FF4E13394
:1014F000436000238360C36003610C224261836107
:10150000C36102F085F900B908BDFFF74BFCFBE7AA
:10151000C40D0020004C004008B50A480A4B036087
:101520004FF4E133436000238360C36003610C2206
:1015300042618361C36102F06BF900B908BDFFF736
:1015400031FCFBE70C0E00200050004008B50A48B3
:101550000A4B03604FF4E133436000238360C360B0
:1015600003610C2242618361C36102F051F900B949
:1015700008BDFFF717FCFBE77C0D002000100140C1
:101580002DE9F0438DB00446002307930893099397
:101590000A930B930368894A934209D0884A93427D
:1015A00068D0884A934200F0E3800DB0BDE8F08334
:1015B00000250095844B1A6C42F400221A641A6CC0
:1015C00002F400220092009A01951A6B42F0010287
:1015D0001A631B6B03F001030193019B0323079321
:1015E00002220892012209920A9308230B9307A969
:1015F000764800F0D3FF7648764B03604FF00063E7
:1016000043608560C5604FF4806303614561856117
:101610004FF48073C3610562456200F00DFE18BB94
:101620006B4BE3639C636C486C4B03604FF000634F
:101630004360402383600023C3604FF480620261F3
:1016400043618361C3610362436200F0F5FD70B9D9
:10165000614BA3639C6300220621342000F040FD0F
:10166000342000F071FDA0E7FFF79CFBD8E7FFF7FF
:1016700099FBEDE700250295534B1A6C42F480125A
:101680001A641A6C02F480120292029A03951A6B81
:1016900042F004021A631A6B02F004020392039AE6
:1016A00004951A6B42F008021A631B6B03F00803DF
:1016B0000493049B4FF4805307934FF00209CDF835
:1016C00020904FF00108CDF8248003270A970826C0
:1016D0000B9607A9424800F061FF04230793CDF859
:1016E0002090CDF824800A970B9607A93D4800F07A
:1016F00055FF3D483D4B03604FF0006343608560FC
:10170000C5604FF480630361456185614FF4807368
:10171000C3610562456200F08FFD18BB324BE36385
:101720009C633348334B03604FF0006343604023B6
:1017300083600023C3604FF4806202614361836170
:10174000C3610362436200F077FD70B9284BA36365
:101750009C6300220621352000F0C2FC352000F0F9
:10176000F3FC22E7FFF71EFBD8E7FFF71BFBEDE7D3
:1017700000220592144B596C41F010015964596CC8
:1017800001F01001059105990692196B41F00101D4
:1017900019631B6B03F001030693069B4FF4C063B0
:1017A000079302230893099203230A9307230B93B9
:1017B00007A9064800F0F2FEF7E600BF004C004023
:1017C000005000400010014000380240000002407C
:1017D000FC0B0020406002405C0C00207060024066
:1017E00000080240000C0240BC0C002010600240C7
:1017F0001C0D0020B8600240DFF834D0FFF766FD12
:101800000C480D490D4A002302E0D458C45004335B
:10181000C4188C42F9D30A4A0A4C002301E0136031
:101820000432A242FBD304F08BF8FFF711FB7047A0
:10183000000002200000002054080020245F00085F
:101840005808002054600020FEE7000008B50B4B4C
:101850001A6842F400721A601A6842F480621A60D0
:101860001A6842F480721A60032000F027FC0F20EF
:10187000FFF710FCFFF7ECFB002008BD003C024026
:10188000034A1168034B1B780B441360704700BF79
:10189000540E002004000020014B1868704700BF60
:1018A000540E00204A4B5A6822F440325A605A685B
:1018B00041680A435A600268536823F48073536096
:1018C00002685368016943EA012353600268536860
:1018D00023F0407353600268536881680B43536080
:1018E0000268936823F40063936002689368C16898
:1018F0000B439360826A374B9A4257D002689368D1
:1019000023F07063936002689368816A0B4393606D
:101910000268936823F04053936002689368C16A39
:101920000B4393600268936823F00203936002689C
:101930009368017E43EA4103936090F82030002BC6
:101940003FD00268536843F40063536002685368F1
:1019500023F46043536001684B68426A013A43EAEA
:1019600042334B600268D36A23F47003D362016888
:10197000CB6AC269013A43EA0253CB6202689368B8
:1019800023F4007393600268936890F8301043EA80
:10199000412393600268936823F480639360026834
:1019A0009368416943EA81239360704702689368B2
:1019B00023F0706393600268936823F04053936050
:1019C000B0E70268536823F400635360CAE700BFBE
:1019D000002301400100000F38B310B50446036C2A
:1019E00043B1236C13F0100F0BD00120002384F8B7
:1019F0003C3010BDFEF780FE0023636484F83C3069
:101A0000EFE7236C23F4885323F0020343F002032F
:101A100023642046FFF746FF00206064236C23F018
:101A2000030343F001032364E0E70120704770479C
:101A30007047704770B5044603681E685D6816F00D
:101A4000020F2FD005F0200262B3026C12F0100FCB
:101A500003D1026C42F4007202649A6812F0405F93
:101A600019D1227EBAB9DA6A12F4700F03D09A68DB
:101A700012F4806F0FD15A6822F020025A60236C52
:101A800023F480732364236C13F4805F03D1236CED
:101A900043F0010323642046FFF7C9FF23686FF07A
:101AA00012021A6005F0800316F0040F37D0002BE5
:101AB00035D0236C13F0100F03D1236C43F4005383
:101AC000236423689A6812F4401F21D19A6B12F4A0
:101AD000401F03D09A6812F4806F19D15A6812F42B
:101AE000806F15D19A6812F0405F11D1227E7AB9C9
:101AF0005A6822F080025A60236C23F480532364D6
:101B0000236C13F4807F03D1236C43F0010323641F
:101B1000204600F0F9F823686FF00C021A6005F017
:101B2000400316F0010F05D023B123681B6813F0A2
:101B3000010F06D105F0806516F0200F00D065B9C1
:101B400070BD236C43F4803323642046FFF770FF9D
:101B500023686FF001021A60ECE7636C43F0020344
:101B6000636423686FF020051D602046FFF761FF66
:101B700023681D60E4E7000030B482B000230193C5
:101B800090F83C30012B00F0B780012380F83C3006
:101B90000B68092B3ED90568EA689BB203EB430347
:101BA0001E3B072404FA03F322EA0303EB600568F3
:101BB000EA688C680B8803EB43031E3B04FA03F3CB
:101BC0001343EB604B68062B3AD805686A6B03EB4E
:101BD0008303053B1F2404FA03F322EA03036B6328
:101BE00005686A6B4B6803EB8303053B0C8804FABA
:101BF00003F313436B630268404B9A4250D0026870
:101C00003E4B9A4255D0002380F83C30184602B033
:101C100030BC704705682A699BB203EB4303072475
:101C200004FA03F322EA03032B6105682A698C682E
:101C30000B8803EB430304FA03F313432B61C1E75F
:101C40000C2B16D805682A6B03EB8303233B1F2458
:101C500004FA03F322EA03032B6305682A6B4B683B
:101C600003EB8303233B0C8804FA03F313432B6336
:101C7000C1E70568EA6A03EB8303413B1F2404FACA
:101C800003F322EA0303EB620568EA6A4B6803EB9D
:101C90008303413B0C8804FA03F31343EB62AAE786
:101CA0000B68122BABD1164A536843F48003536080
:101CB000A5E70B68103B012BA5D8114A536843F4E4
:101CC000000353600B68102B9DD10E4B1B6802F173
:101CD000467202F52E3202F28332A2FB03239B0CE2
:101CE00003EB83035B00019302E0019B013B019343
:101CF000019B002BF9D186E7022088E700200140F4
:101D000000230140000000207047002800F0A1805F
:101D100038B5044690F82030D3B12268136843F0F8
:101D200001031360FFF7B8FD054623685A6812F0F7
:101D3000010F10D1FFF7B0FD401B0A28F5D9636AE7
:101D400043F400336362052384F82030012038BD5A
:101D5000FEF774FDE1E71A6822F002021A60FFF74D
:101D60009BFD054623685A6812F0020F0DD0FFF75D
:101D700093FD401B0A28F5D9636A43F4003363627C
:101D8000052384F820300120E1E7227E012A3DD09E
:101D90001A6822F080021A60637E012B3BD0226811
:101DA000136823F040031360A37E012B39D022680F
:101DB000136823F020031360E37E012B37D02268E1
:101DC000136843F010031360237F012B35D0226882
:101DD000136823F008031360637F012B33D022685C
:101DE000136823F004031360A368E26813432269B5
:101DF0001343626913436268013A21681343CB615C
:101E000000206062012384F82030A0E71A6842F0C5
:101E100080021A60C0E72268136843F04003136031
:101E2000C2E72268136843F020031360C4E7226806
:101E3000136823F010031360C6E72268136843F0A9
:101E400008031360C8E72268136843F004031360B3
:101E5000CAE7012070477047704770477047704766
:101E600070477047704770477047704770477047BA
:101E70002DE9F84F054603685C69D3F804809F6834
:101E8000D3F80CB0D3F810A0D3F8189014F00106D2
:101E90003BD017F0010616D001229A6017F0020F0E
:101EA00008D117F0040F0CD117F0080606D04FF434
:101EB000805608E0FFF7CFFF002604E0FFF7CEFFD3
:101EC00001E04FF4006617F4807F0DD02B684FF4CB
:101ED00080729A6017F4007F40F0868017F4806F5C
:101EE00000F0868046F4005617F4803F0DD02B6832
:101EF0004FF480329A6017F4003F40F0838017F46B
:101F0000802F00F0838046F4004614F0080F07D0BD
:101F10001BF0100F04D046F400762B681022DA6014
:101F200014F0040F02D01BF0080F79D114F0020F47
:101F300004D02B68DB6813F0030F78D114F0400F46
:101F400007D01AF0100F04D046F480662B681022D8
:101F50001A6114F0200F02D01AF0080F6BD114F0A0
:101F6000100F04D02B681B6913F0030F6AD114F40F
:101F7000003F02D018F0100F68D114F4803F02D057
:101F800018F0080F69D114F4004F7AD018F0040F3C
:101F900074D014F4807F04D019F0010F01D046F002
:101FA000010614F4007F04D019F0020F01D046F0AE
:101FB000020614F4806F04D019F0040F01D046F02B
:101FC000040614F4006F59D019F0700956D0B9F115
:101FD000400F65D058D8B9F1200F5ED0B9F1300F5D
:101FE00042D146F0200644E02846FFF735FF7BE764
:101FF00017F4006F02D046F4804675E72846FFF7D5
:102000002EFF71E72846FFF728FF7EE717F4002F21
:1020100002D046F4803678E72846FFF721FF74E7C0
:102020002B680822DA602846FFF71CFF7EE7284667
:10203000FFF717FF82E72B6808221A612846FFF78F
:1020400013FF8CE72846FFF70EFF90E72B6810225E
:102050005A602846FFF709FF8FE72B6808225A606D
:102060002846FFF703FF8EE7B9F1100F01D146F0C4
:1020700008062A68936923F0700393612B68042291
:102080005A609EB9BDE8F88FB9F1500F0BD0B9F185
:10209000600FEED146F48076EBE746F01006E8E7F5
:1020A00046F04006E5E746F08006E2E76B6A1E432D
:1020B0006E622846FFF7DBFEE4E70000074AD368BC
:1020C00023F4E0631B041B0C000200F4E0600343F4
:1020D00043F0BF6343F40033D360704700ED00E08A
:1020E00030B4174BDB68C3F30223C3F10704042C9D
:1020F00028BF04241D1D062D18D9033B4FF0FF35C2
:1021000005FA04F421EA0401994005FA03F322EAEE
:102110000303194300280BDB0901C9B200F1604039
:1021200000F5614080F8001330BC70470023E5E7FC
:1021300000F00F000901C9B2024B1954F4E700BFC7
:1021400000ED00E014ED00E0002807DB00F01F02C6
:10215000400901239340024A42F82030704700BFF3
:1021600000E100E010B40368D9B210390C4AA2FBB8
:10217000014212090B4CA25CC2655F2909D923F404
:102180007F7323F0030304338365806D5DF8044B94
:10219000704723F47F7323F003038365F5E700BFE3
:1021A000ABAAAAAAEC5E0008836A826992B9012BE5
:1021B0000AD0022B02D00BB100207047C36A13F083
:1021C000807F28D100207047C36AB3F1C07F24D03C
:1021D00000207047B2F5005F09D0022B25D9032BF0
:1021E00025D1C36A13F0807F23D100207047032BD1
:1021F00003D8DFE803F01404140A00207047C36A10
:1022000013F0807F0DD100207047C36AB3F1C07F07
:1022100009D000207047012070470120704701203D
:10222000704701207047012070470120704700204F
:10223000704701207047000070B50446FFF72CFB83
:10224000002C5BD00546022384F83530002384F847
:1022500034302268136823F00103136023681A687E
:1022600012F0010F0AD0FFF717FB431B052BF5D91E
:1022700020236365032084F8350070BD1A68204868
:1022800010406168A2680A43E1680A4321690A4371
:1022900061690A43A1690A43E1690A43216A0A4361
:1022A0000243616A04291ED01A602668756925F008
:1022B0000705636A1D43042B07D1A36A1D43E36A24
:1022C0001BB12046FFF770FF90B975612046FFF7FC
:1022D00049FFE26D3F239340836000206065012346
:1022E00084F83530C9E7E16A206B01430A43DBE734
:1022F00040236365012084F83500BEE70120BCE778
:102300003F8010F070B50446866DFFF7C5FA94F86B
:102310003530DBB2022B06D080236365002384F8BE
:102320003430012070BD05462268136823F016037F
:1023300013602268536923F080035361236CE3B177
:102340002268136823F0080313602268136823F0DF
:102350000103136023681B6813F0010F11D0FFF70E
:102360009BFA431B052BF5D920236365032084F8D2
:102370003500002384F83430D4E7A36C002BDFD180
:10238000E3E7E26D3F239340B360012384F83530E7
:10239000002084F83400C5E790F83530DBB2022B1A
:1023A00003D08023436501207047052380F8353032
:1023B0000268136823F001031360002070470000D7
:1023C000F0B583B0044600230193724B1D68724B35
:1023D000A3FB0535AD0A876D3E68C26D08239340A7
:1023E000334210D003681A6812F0040F0BD01A6839
:1023F00022F004021A60C26D08239340BB60436D53
:1024000043F001034365E26D01239340334209D059
:102410002268526912F0800F04D0BB60636D43F0F4
:1024200002036365E26D04239340334209D02268BE
:10243000126812F0020F04D0BB60636D43F0040316
:102440006365E26D10239340334224D02268126802
:1024500012F0080F1FD0BB6023681A6812F4802F97
:102460000DD01B6813F4002F04D1236C9BB12046C0
:10247000984710E0A36C73B1204698470BE01A68A8
:1024800012F4807F03D11A6822F008021A60236CCC
:102490000BB120469847E26D20239340334255D03C
:1024A0002268126812F0100F50D0BB6094F83530DB
:1024B000DBB2052B0ED023681A6812F4802F33D0BC
:1024C0001B6813F4002F2AD1636C002B3ED02046EA
:1024D00098473BE02268136823F0160313602268D4
:1024E000536923F080035361236CA3B122681368FE
:1024F00023F008031360E26D3F239340BB60012388
:1025000084F83530002384F83430236D002B3FD01D
:10251000204698473CE0A36C002BE7D1EBE7E36B48
:10252000A3B12046984711E01A6812F4807F09D1C0
:102530001A6822F010021A60012384F83530002353
:1025400084F83430E36B0BB120469847636DFBB1E0
:10255000636D13F0010F17D0052384F8353022681E
:10256000136823F001031360019B01330193AB4215
:1025700004D823681B6813F0010FF5D1012384F8F8
:102580003530002384F83430E36C0BB12046984793
:1025900003B0F0BD00000020B5814E1B00230F2BBF
:1025A00000F2DD80F0B482B05DE086685F00032455
:1025B000BC4026EA0406CC68BC40344384604668CC
:1025C00026EA02064C68C4F300129A403243426085
:1025D00057E0DC08083450F8247003F00702960036
:1025E0000F22B24027EA02070A69B2403A4340F894
:1025F00024205AE0072200E00022B2403A4302348D
:10260000574E46F82420574A9468EA4324EA0506C0
:102610004F6817F4801F01D045EA0406514CA660AC
:10262000E46802EA04064F6817F4001F01D045EA87
:1026300004064C4CE660646802EA04064F6817F42E
:10264000003F01D045EA0406464C666024682240FB
:102650004E6816F4803F01D045EA0402414C2260E6
:1026600001330F2B78D801229A400C6804EA020546
:1026700032EA0404F4D14C6804F00304013C012C58
:1026800093D94A6802F00302032A09D0C4685E00A5
:102690000322B24024EA02048A68B2402243C260A4
:1026A0004A6802F00302022A93D004685E00032203
:1026B000B24024EA02044A6802F00302B240224314
:1026C00002604A6812F4403FCAD000220192264AB2
:1026D000546C44F480445464526C02F4804201927D
:1026E000019A9C08A61C1E4A52F8267003F00302A9
:1026F00096000F22B24027EA02071C4A90423FF49C
:102700007BAF02F5806290421AD002F5806290425F
:1027100018D002F58062904216D002F58062904295
:1027200014D002F58062904212D002F5806290428D
:1027300010D002F5806290423FF45CAF08225CE763
:1027400001225AE7022258E7032256E7042254E7FF
:10275000052252E7062250E702B0F0BC70477047EE
:1027600000380140003C01400038024000000240B7
:102770000AB181617047090481617047002800F047
:10278000CC80F8B5044690F83D30002B77D0242358
:1027900084F83D302268136823F001031360226837
:1027A000136843F4004313602268136823F4004362
:1027B000136000F0D9FB62685A4B9A4264D85A4BB6
:1027C00098428CBF00230123002B40F0A880574D76
:1027D000A5FB0035AF0C2668716821F03F0141EA86
:1027E0009541716021680B6A23F03F0365684D4A8B
:1027F00095424FD87A1C13430B622568E96921F48E
:102800004F4121F0FF016368464A93424CD801389A
:102810005B00B0FBF3F0013040F6FC73184278D057
:10282000C0F30B030B43EB6121680B6823F0C0037B
:10283000E269206A024313430B6021688B6823F42A
:10284000034323F0FF032269E068024313438B60D4
:102850002168CB6823F0FF036269A0690243134338
:10286000CB602268136843F00103136000202064EA
:10287000202384F83D30206384F83E00F8BD80F8C2
:102880003C30FEF7D3F982E7294B98428CBF0023F6
:10289000012399E74FF4967202FB07F2254DA5FB41
:1028A000025292090132A6E7A268BAB9461E03EBAA
:1028B0004307B6FBF7F60136C6F30B06B6FA86F603
:1028C000760946BBC2B9421E03EB4303B2FBF3F2E7
:1028D0000132C2F30B0242F40043A3E7461E03EBAE
:1028E000830707EB8707B6FBF7F60136C6F30B063F
:1028F000B6FA86F67609E4E7421E03EB830303EBA0
:102900008303B2FBF3F20132C2F30B0242F4404301
:1029100088E7042386E7012384E70120704701202C
:10292000ACE700BFA08601007F841E0083DE1B434E
:10293000FF083D00D34D6210002800F0DF8170B524
:1029400082B00446036813F0010F3BD0A64B9B688E
:1029500003F00C03042B2CD0A34B9B6803F00C0357
:10296000082B21D06368B3F5803F4FD0B3F5A02F7B
:1029700052D09D4B1A6822F480321A601A6822F4F1
:1029800080221A606368002B50D0FEF785FF054651
:10299000954B1B6813F4003F14D1FEF77DFF401BDD
:1029A0006428F5D90320B0E18F4B5B6813F4800FE6
:1029B000D8D08D4B1B6813F4003F03D06368002B05
:1029C00000F09E81236813F0020F54D0864B9B6861
:1029D00013F00C0F3ED0844B9B6803F00C03082BC4
:1029E00033D0E368002B67D0804B01221A60FEF7DA
:1029F00053FF05467C4B1B6813F0020F53D1FEF7C3
:102A00004BFF401B0228F5D903207EE1764A13686C
:102A100043F480331360B5E7734B1A6842F48022A5
:102A20001A601A6842F480321A60ABE7FEF734FF8E
:102A300005466D4B1B6813F4003FC3D0FEF72CFF17
:102A4000401B6428F5D903205FE1674B5B6813F4F2
:102A5000800FC6D1644B1B6813F0020F03D0E368EC
:102A6000012B40F04F81604A136823F0F80321697D
:102A700043EAC1031360236813F0080F40D0636971
:102A800063B35B4B01221A60FEF706FF0546564B07
:102A90005B6F13F0020F33D1FEF7FEFE401B0228DE
:102AA000F5D9032031E1504A136823F0F803216976
:102AB00043EAC1031360DEE74C4B00221A60FEF7C5
:102AC000EBFE0546484B1B6813F0020FD3D0FEF710
:102AD000E3FE401B0228F5D9032016E1444B0022F7
:102AE0001A60FEF7D9FE05463F4B5B6F13F0020FED
:102AF00006D0FEF7D1FE401B0228F5D9032004E1E1
:102B0000236813F0040F78D0374B1B6C13F0805FF1
:102B10000DD100230193344B1A6C42F080521A6499
:102B20001B6C03F080530193019B012500E00025FD
:102B3000304B1B6813F4807F21D0A368012B32D067
:102B4000052B36D0284B1A6F22F001021A671A6F34
:102B500022F004021A67A368002B34D0FEF79CFE13
:102B60000646214B1B6F13F0020F45D1FEF794FE72
:102B7000801B41F288339842F3D90320C5E01D4AF7
:102B8000136843F480731360FEF786FE0646194B04
:102B90001B6813F4807FD0D1FEF77EFE801B0228D5
:102BA000F5D90320B1E0104A136F43F00103136716
:102BB000D1E70D4B1A6F42F004021A671A6F42F008
:102BC00001021A67C7E7FEF767FE0646064B1B6F52
:102BD00013F0020F10D0FEF75FFE801B41F2883326
:102BE0009842F3D9032090E00038024000004742A9
:102BF000800E474200700040EDB9A369002B00F041
:102C00008380494A926802F00C02082A51D0022BB4
:102C100017D0464B00221A60FEF73EFE0446424B98
:102C20001B6813F0007F42D0FEF736FE001B02281F
:102C3000F5D9032069E03C4A136C23F080531364F8
:102C4000DBE73A4B00221A60FEF726FE0546364BBC
:102C50001B6813F0007F06D0FEF71EFE401B022803
:102C6000F5D9032051E0E369226A1343626A43EA1B
:102C70008213A26A5208013A43EA0243E26A43EA33
:102C80000263294A5360294B01221A60FEF704FEB1
:102C90000446254B1B6813F0007F06D1FEF7FCFDB0
:102CA000001B0228F5D903202FE000202DE0002092
:102CB0002BE0012B2BD01C4B5B6803F48001E269F5
:102CC000914226D103F03F02216A8A4223D1616AF0
:102CD00047F6C0721A40B2EB811F1ED103F4403197
:102CE000A26A5208013AB1EB024F18D103F07063A7
:102CF000E26AB3EB026F14D1002006E001207047B6
:102D0000012002E0012000E0002002B070BD01209F
:102D1000FBE70120F9E70120F7E70120F5E70120B3
:102D2000F3E70120F1E700BF0038024060004742AE
:102D3000F8B52F4B9B6803F00C03042B53D0082BE2
:102D400053D12B4B5A6802F03F025B6813F4800F9B
:102D500028D0274B5B68C3F3881358010021C01AA1
:102D600061F100018E0146EA906687013C1A66EB2C
:102D70000105E90041EA5471E000C01841F1000189
:102D80004B0243EAD0534402204619460023FDF784
:102D90001FFA174B5B68C3F3014301335B00B0FBC1
:102DA000F3F023E0124B5B68C3F388135C0100254A
:102DB000E41A65F10005AE0146EA9466A701381BE6
:102DC00066EB0501CC0044EA5074C500E81844F1F4
:102DD00000018B0243EA90538402204619460023E7
:102DE000FDF7F6F9D5E7034800E00348F8BD00BF5A
:102DF0000038024000127A000024F400002800F09D
:102E00009B8070B50D4604464F4B1B6803F00703CB
:102E10008B4208D2CBB24C4A1370136803F00703FD
:102E20008B4240F08B80236813F0020F17D013F011
:102E3000040F04D0454A936843F4E0539360236839
:102E400013F0080F04D0414A936843F46043936041
:102E50003E4A936823F0F003A1680B439360236814
:102E600013F0010F32D06368012B21D09A1E012A82
:102E700025D9364A126812F0020F61D033498A68A8
:102E800022F0030213438B60FEF706FD06462F4B2C
:102E90009B6803F00C036268B3EB820F16D0FEF759
:102EA000FBFC801B41F288339842F0D9032042E0BA
:102EB000264A126812F4003FE0D101203BE0234A89
:102EC000126812F0007FD9D1012034E01E4B1B683C
:102ED00003F00703AB4207D9EAB21B4B1A701B6819
:102EE00003F00703AB422DD1236813F0040F06D083
:102EF000164A936823F4E053E1680B439360236818
:102F000013F0080F07D0114A936823F46043216936
:102F100043EAC1039360FFF70BFF0C4B9B68C3F3BD
:102F200003130B4AD35CD8400A4B18600A4B18684D
:102F3000FEF7B0F8002070BD012070470120FAE7CD
:102F40000120F8E70120F6E7003C0240003802408B
:102F5000D45E00080000002008000020014B186823
:102F6000704700BF0000002008B5FFF7F7FF044BD3
:102F70009B68C3F38223034AD35CD84008BD00BFDB
:102F800000380240E45E000808B5FFF7E7FF044B95
:102F90009B68C3F34233034AD35CD84008BD00BFEB
:102FA00000380240E45E00080F2303600B4B9A6870
:102FB00002F0030242609A6802F0F00282609A68AE
:102FC00002F4E052C2609B68DB0803F4E053036143
:102FD000034B1B6803F007030B6070470038024087
:102FE000003C024000285AD010B50446436A33B969
:102FF0004368B3F5827F05D00023C36102E000235C
:10300000036143610023A36294F85130002B40D048
:10301000022384F851302268136823F040031360C0
:10302000636803F48273A26802F404421343E26803
:1030300002F400621343226902F002021343626940
:1030400002F001021343A26902F400721343E26921
:1030500002F038021343226A02F080021343A26A8C
:1030600002F40052216813430B60638B03F00403E6
:10307000626A02F01002216813434B602268D36930
:1030800023F40063D36100206065012384F851308C
:1030900010BD84F850302046FDF744FFB8E701200A
:1030A0007047704730B585B0044602685168936830
:1030B000C3F3801013F0400F05D113F0010F02D0BD
:1030C00011F0400F69D113F0020F02D011F0800F00
:1030D00067D1C3F3401513F0200F03D110B913F4D7
:1030E000807F61D011F0200F5ED078B194F851004C
:1030F000C0B203285AD0606D40F004006065002023
:103100000090D068009090680090009865B1606D64
:1031100040F0010060650020029090680290106805
:1031200020F040001060029A13F4807F09D0636D94
:1031300043F0080363650023039323689B680393AC
:10314000039B636D002B2FD02268536823F0E003AC
:103150005360012384F8513011F0030F2ED0226800
:10316000536823F003035360E36C4BB1154A1A65AF
:10317000E06CFFF711F918B1636D43F0400363652C
:10318000A36C8BB10F4A1A65A06CFFF705F958B113
:10319000636D43F04003636506E0236C2046984767
:1031A00002E0636C2046984705B030BD00230193D0
:1031B000D368019393680193019BF5E72046FFF7DD
:1031C00070FFF1E7C931000808B5806B0023C387A1
:1031D000C386FFF766FF08BD7047000090F83D30DA
:1031E000DBB2012B37D1022380F83D300268D3686F
:1031F00043F00103D3600368194A934220D0B3F12E
:10320000804F1DD0A2F57C42934219D002F5806216
:10321000934215D002F58062934211D002F57842B4
:1032200093420DD002F57052934209D0A2F5943228
:10323000934205D01A6842F001021A6000207047DC
:103240009A6802F00702062A07D01A6842F00102C3
:103250001A6000207047012070470020704700BFAF
:1032600000000140704770477047704770B50446D2
:103270000368DE681D6915F0020F10D016F0020F0A
:103280000DD06FF002021A610123037703689B6976
:1032900013F0030F5ED0FFF7E6FF0023237715F04E
:1032A000040F12D016F0040F0FD023686FF0040241
:1032B0001A610223237723689B6913F4407F4FD060
:1032C0002046FFF7D0FF0023237715F0080F12D018
:1032D00016F0080F0FD023686FF008021A6104235C
:1032E00023772368DB6913F0030F40D02046FFF7F4
:1032F000BAFF0023237715F0100F12D016F0100F2D
:103300000FD023686FF010021A6108232377236817
:10331000DB6913F4407F31D02046FFF7A4FF002380
:10332000237715F0010F02D016F0010F2DD115F003
:10333000800F02D016F0800F2FD115F0400F02D071
:1033400016F0400F31D115F0200F02D016F0200FEB
:1033500033D170BDFFF786FF2046FFF785FF9CE75E
:103360002046FFF77FFF2046FFF77EFFABE72046B2
:10337000FFF778FF2046FFF777FFBAE72046FFF711
:1033800071FF2046FFF770FFC9E723686FF0010265
:103390001A612046FDF7FAFCC9E723686FF0800246
:1033A0001A61204600F047F9C7E723686FF0400232
:1033B0001A612046FFF759FFC5E723686FF0200226
:1033C0001A61204600F036F9C3E700000368344A6A
:1033D000904212D0B0F1804F0FD0A2F57C429042C3
:1033E0000BD002F58062904207D002F580629042D5
:1033F00003D002F57842904203D123F070034A686B
:103400001343274A90422AD0B0F1804F27D0A2F52B
:103410007C42904223D002F5806290421FD002F598
:10342000806290421BD002F57842904217D002F59C
:103430007052904213D002F5806290420FD002F594
:10344000806290420BD0A2F59832904207D002F5EC
:103450008062904203D002F58062904203D123F44F
:103460004073CA68134323F080034A69134303601F
:103470008B68C3620B688362094B984203D003F5E3
:103480008063984201D10B6903630123436103699F
:1034900013F0010F03D0036923F0010303617047A8
:1034A0000000014040B310B5044690F83D30F3B140
:1034B000022384F83D30214651F8040BFFF786FFC4
:1034C000012384F8463084F83E3084F83F3084F895
:1034D000403084F8413084F8423084F8433084F836
:1034E000443084F8453084F83D30002010BD80F829
:1034F0003C30FFF771FEDBE701207047002853D016
:10350000F8B50D46044690F83D30002B47D0022315
:1035100084F83D302268936823F4804323F0070346
:103520009360214651F8040BFFF750FF21688A6829
:103530008E690F6A2868104326F4407626F0030649
:10354000AA68AB6942EA0323334323F47C4323F0A4
:10355000FC03EE68EA6946EA02261E432A6A130360
:103560002A6943EA0213334327F0AA076A686D69A0
:1035700042EA05123A43886021688B6123681A6227
:10358000012384F8463084F83E3084F83F3084F8D4
:10359000423084F8433084F83D300020F8BD80F894
:1035A0003C30FDF705FFB2E70120704790F83C3052
:1035B000012B3BD030B4012380F83C30022380F84B
:1035C0003D3003685C689D6824F070040A682243FB
:1035D0005A600368164A93421AD0B3F1804F17D04D
:1035E000A2F57C42934213D002F5806293420FD041
:1035F00002F5806293420BD002F57842934207D0E5
:1036000002F57052934203D0A2F59432934204D152
:1036100025F080054A6815439D60012380F83D3000
:10362000002380F83C30184630BC704702207047B9
:103630000000014070477047026802F10C0353E834
:10364000003F23F490730C3242E800310029F3D19B
:10365000026802F1140353E8003F23F0010314321F
:1036600042E800310029F3D1036B012B05D0202360
:1036700080F84230002303637047026802F10C03B4
:1036800053E8003F23F010030C3242E800310029D8
:10369000F3D1ECE790F84130DBB2212B01D00220CE
:1036A00070478368B3F5805F17D0036A5A1C0262C3
:1036B0001A7803685A60C38C9BB2013B9BB2C384E7
:1036C0004BB90268D36823F08003D3600268D368E3
:1036D00043F04003D360002070470369002BE4D11E
:1036E000036A1B880268C3F308035360036A02334A
:1036F0000362E0E770B504460268136923F440539F
:10370000C1680B4313618368026913434269134321
:10371000C2691A430168CB6823F4164323F00C03F3
:103720001343CB600268536923F4407381690B43F0
:1037300053610368344A934206D002F58062934293
:1037400002D0FFF711FC01E0FFF71EFCE369B3F5BF
:10375000004F2AD00026051846EB06012D1846EB2F
:103760000101CB0043EA5573EA0015461946636828
:103770009A009B0F281846EB0101FCF729FD234D09
:10378000A5FB00325109642303FB11031B013233F3
:10379000A5FB03235B0903F0F00202EB011203F027
:1037A0000F03216813448B6070BD0026051846EB9B
:1037B00006012D1846EB0101CB0043EA5573EA00E0
:1037C0001546194662683346921846EB03032818DB
:1037D00046EB0101FCF7FCFC0C4DA5FB0032510946
:1037E000642303FB1103DB003233A5FB03235B09D6
:1037F0005A0002F4F87202EB011203F00703216889
:1038000013448B60D0E700BF001001401F85EB51CF
:1038100060B310B5044690F8413013B3242384F804
:1038200041302268D36823F40053D3602046FFF769
:1038300061FF2268136923F490431361226853697E
:1038400023F02A0353612268D36843F40053D36002
:1038500000206064202384F8413084F842306063A3
:1038600010BD80F84030FDF78BFED7E70120704790
:10387000704708B50168CA6822F04002CA60202279
:1038800080F84120FFF7F4FF002008BD7047704723
:1038900008B5806B0023C385C384FFF7F8FF08BD1C
:1038A000704790F84230DBB2222B69D18368B3F5C0
:1038B000805F4FD0826AB3F5805F04D0002B56D171
:1038C0000369002B53D103685B681370836A01336B
:1038D0008362C38D9BB2013B9BB2C385002B51D148
:1038E00000B583B00268D36823F02003D360026878
:1038F000D36823F48073D3600268536923F0010313
:103900005361202380F8423000234363036B012B73
:1039100033D100230363026802F10C0353E8003F34
:1039200023F010030C3242E800310029F3D1036880
:103930001A6812F0100F06D0002201921A68019244
:103940005B680193019B818DFFF7AAFF002003B004
:103950005DF804FB0269002AACD1826A03685B68E7
:10396000C3F308031380836A02338362B1E70368F9
:103970005B6803F07F031370A8E7FFF787FFE5E7B5
:10398000022070470020704730B583B004460268BB
:103990001368D068516913F00F0505D113F0200F9B
:1039A00002D010F0200F19D12DB111F0010119D161
:1039B00010F4907F16D1216B01297DD013F0800F78
:1039C00003D010F0800F40F0198113F0400F03D0A6
:1039D00010F0400F40F0168103B030BD2046FFF7D5
:1039E00060FFF9E713F0010F06D010F4807F03D0D9
:1039F000626C42F00102626413F0040F04D019B14A
:103A0000626C42F00202626413F0020F04D019B13A
:103A1000626C42F00402626413F0080F07D010F0E9
:103A2000200F00D119B1626C42F008026264626C2E
:103A3000002AD1D013F0200F02D010F0200F29D18E
:103A400023685B6903F04003626C12F0080F00D139
:103A500063B32046FFF7F0FD23685B6913F0400F66
:103A600020D0226802F1140353E8003F23F0400302
:103A7000143242E800310029F3D1E36B73B1634A99
:103A80001A65E06BFEF788FC0028A5D0E06B036D9B
:103A90009847A1E72046FFF704FFD1E72046FFF74C
:103AA000F6FE99E72046FFF7F2FE95E72046FFF77E
:103AB000EEFE002363648FE713F0100F3FF47EAF38
:103AC00010F0100F3FF47AAF0023019313680193B5
:103AD00053680193019B536913F0400F52D0E26B7E
:103AE00013685B689BB2002B3FF476AFA18D9942BF
:103AF0007FF672AFE385D369B3F5807F37D0226854
:103B000002F10C0353E8003F23F480730C3242E8C7
:103B100000310029F3D1226802F1140353E8003F79
:103B200023F00103143242E800310029F3D1226866
:103B300002F1140353E8003F23F04003143242E83B
:103B400000310029F3D1202384F84230002323637D
:103B5000226802F10C0353E8003F23F010030C32FB
:103B600042E800310029F3D1E06BFEF7CBFB0223E2
:103B70006363A18DE38D9BB2C91A89B22046FFF71A
:103B80008FFE29E7A18DE38D9BB2C91A89B2E38D1F
:103B90009BB2002B3FF420AF00293FF41DAF2268F9
:103BA00002F10C0353E8003F23F490730C3242E817
:103BB00000300028F3D1226802F1140353E8003FDB
:103BC00023F00103143242E800300028F3D120230F
:103BD00084F8423000232363226802F10C0353E887
:103BE000003F23F010030C3242E800300028F3D1EC
:103BF000022363632046FFF753FEEDE62046FFF7FE
:103C000049FDE9E62046FFF734FEE5E69138000875
:103C100008B5054B1B6801F00BFC012800D108BD5D
:103C200000F0D8F9FBE700BF10E000E0EFF30583F8
:103C30002BB9064B186828B901221A6070476FF03B
:103C4000050070474FF0FF30704700BFE0140020C0
:103C5000EFF3058373B90A4B1B68012B0DD110B527
:103C60000024084BDC77064B02221A6001F02EF983
:103C7000204610BD6FF0050070474FF0FF307047D1
:103C8000E014002000ED00E0F0B587B000240594BA
:103C9000EFF305847CBB70B32AB31568936903B94D
:103CA00018235C1E372C4AD8546814F0010F48D1F1
:103CB000566976B14FEA960C946834B1D768B7F577
:103CC000916F02D3176907B1C6B92CB14FF0FF3419
:103CD0000EE04FF0800CEFE7D4688CB9146994B112
:103CE0004FF0FF3404E01546002418234FF0800CF9
:103CF000012C0AD0ACB1059807B0F0BD0124F7E75C
:103D00004FF0FF34F4E70024F2E71469926802925E
:103D1000019400930B466246294601F065F8059030
:103D2000E9E705AA019200930B461FFA8CF2294697
:103D300001F096F80128DED000230593DBE7002090
:103D4000DAE70020D8E708B5EFF3058333B908B9FF
:103D5000002008BD01F026FA0020FAE76FF0050008
:103D6000F7E70000034B0360034B0B6080231360F5
:103D7000704700BF58100020580E0020034B03600E
:103D8000034B0B604FF4807313607047E8180020FA
:103D9000E414002000F1080343604FF0FF3282601A
:103DA000C360036100230360704700230361704711
:103DB00043684B609A688A60516099600861036843
:103DC00001330360704730B40D68B5F1FF3F11D087
:103DD00000F108031C465B681A68AA42FAD96368B6
:103DE0004B6099608C606160086103680133036017
:103DF00030BC70470469F2E70369416882688A60F1
:103E0000416851605A68824206D0002202611A68F5
:103E1000013A1A601868704782685A60F5E7000036
:103E200082B0002301930D4B1B68B3F1FF3F08D014
:103E30004FF0500383F31188BFF36F8FBFF34F8FA1
:103E4000FEE74FF0500383F31188BFF36F8FBFF38A
:103E50004F8F019B002BFCD002B070470C0000205C
:103E600008480068006880F308884FF0000080F37D
:103E7000148862B661B6BFF34F8FBFF36F8F00DF58
:103E800000BF000008ED00E0DFF80C00016841F41D
:103E9000700101607047000088ED00E04FF0807312
:103EA00040F8043C21F0010140F8081C054B40F8A3
:103EB0000C3C40F8202C6FF0020340F8243C4438BE
:103EC000704700BF213E0008000000000000000015
:103ED000074B19680868B0E8F04F80F30988BFF312
:103EE0006F8F4FF0000080F311887047AFF30080B0
:103EF000D85900204FF0500383F31188BFF36F8F20
:103F0000BFF34F8F0A4A136801331360012B00D0AF
:103F10007047084B1B6813F0FF0FF9D04FF05003A8
:103F200083F31188BFF36F8FBFF34F8FFEE700BF9E
:103F30000C00002004ED00E0094B1B6843B94FF072
:103F4000500383F31188BFF36F8FBFF34F8FFEE7EA
:103F5000013B034A13600BB983F31188704700BF1C
:103F60000C00002000000000000000000000000025
:103F7000EFF30980BFF36F8F154B1A681EF0100F17
:103F800008BF20ED108A20E9F04F10602DE90900EC
:103F90004FF0500080F31188BFF34F8FBFF36F8F46
:103FA00001F026F94FF0000080F3118809BC196870
:103FB0000868B0E8F04F1EF0100F08BFB0EC108A90
:103FC00080F30988BFF36F8F704700BFAFF30080A5
:103FD000D859002008B54FF0500383F31188BFF380
:103FE0006F8FBFF34F8F00F0D3FF18B1034B4FF02B
:103FF00080521A60002383F3118808BD04ED00E0AD
:10400000084A0023136008490B60084B1B680849E5
:10401000A1FB03139B09013B06490B6007231360B7
:10402000704700BF10E000E018E000E00000002052
:10403000D34D621014E000E03A4B1A683A4B9A42B2
:1040400029D0384B1A68394B9A422DD010B582B01E
:10405000374B1A78D2B20192FF221A701B78DBB26A
:104060008DF803309DF8033003F05003314A13708C
:10407000314B07221A609DF8033013F0800F1CD0DB
:104080002D4A1368013B13609DF803305B00DBB2DF
:104090008DF80330EFE74FF0500383F31188BFF33F
:1040A0006F8FBFF34F8FFEE74FF0500383F31188FC
:1040B000BFF36F8FBFF34F8FFEE71F4B1B68032BC0
:1040C00008D04FF0500383F31188BFF36F8FBFF315
:1040D0004F8FFEE71B0203F4E063174A1360019B56
:1040E000DBB2134A1370154B1A6842F470021A605F
:1040F0001A6842F070421A60FFF782FF0024104BEA
:104100001C60FFF7C1FE0F4A136843F04043136081
:10411000FFF7A6FE01F06CF8FFF782FE204602B022
:1041200010BD00BF00ED00E071C20F4170C20F4131
:1041300000E400E0701D0020741D002020ED00E070
:104140000C00002034EF00E0EFF305830F2B0FD9B4
:10415000104A9B5CDBB2104A12789A4208D94FF0A1
:10416000500383F31188BFF36F8FBFF34F8FFEE7C8
:104170000A4B1B6803F4E063094A1268934208D9AA
:104180004FF0500383F31188BFF36F8FBFF34F8F4E
:10419000FEE77047F0E300E0701D00200CED00E04A
:1041A000741D0020124A12F0070F1ED0D11D21F0FD
:1041B0000701C1F5705313440A460E4802600021FE
:1041C00041601344083B23F007030B480360596028
:1041D0001960991A51601360084B1960084B1960F7
:1041E000084B4FF000421A6070474FF47053E4E7F9
:1041F0007C1D002090590020781D0020845900204B
:10420000805900207C59002010B4134B1A461B68BB
:104210008342FBD35168541884420AD04168441841
:10422000A3420BD00360904200D010605DF8044BB5
:1042300070474068014451601046EFE7074C24681E
:10424000A34206D05B681944416013681B68036091
:10425000E9E70460E7E700BF90590020781D0020DF
:1042600070B5044600F086FE364B1B68A3B1364B92
:104270001B681C424ED134B1083414F0070F02D031
:1042800024F007040834002C46D0304B1B68A342AE
:1042900051D32F4B1D6804E0FFF784FFE7E72B465F
:1042A00015466A68A24202D22A68002AF7D1254A36
:1042B0001268AA4241D01E6808362A681A606B68E4
:1042C0001B1B102B10D9281910F0070F08D04FF026
:1042D000500383F31188BFF36F8FBFF34F8FFEE757
:1042E00043606C60FFF790FF6A6818490B689B1A7F
:1042F0000B60184909688B4201D216490B60124BBA
:104300001B6813436B6000232B60134A136801334F
:10431000136002E0002600E0002600F0C7FE16F061
:10432000070F0CD04FF0500383F31188BFF36F8F4A
:10433000BFF34F8FFEE70026EFE70026EDE730469C
:1043400070BD00BF781D00207C59002080590020DE
:10435000905900208459002088590020002834D02A
:1043600038B50446A0F1080550F8043C174A126815
:10437000134208D14FF0500383F31188BFF36F8FBE
:10438000BFF34F8FFEE750F8081C41B14FF05003C8
:1043900083F31188BFF36F8FBFF34F8FFEE723EADC
:1043A000020340F8043C00F0E5FD54F8041C084A00
:1043B00013680B4413602846FFF726FF054A13686D
:1043C0000133136000F072FE38BD70477C59002045
:1043D000805900208C59002010B50446FFF78AFD53
:1043E000A26BE36B9A4204D00024FFF7A5FD2046A0
:1043F00010BD0124F9E710B50446FFF77BFDA36B60
:1044000023B90124FFF798FD204610BD0024F9E7E9
:1044100070B504461546866B026C5AB903681BB129
:1044200000200136A66370BD806801F011F80023FA
:10443000A360F6E76DB94068FCF746F8226C636844
:1044400013446360A268934219D3236863602846CB
:10445000E7E7C068FCF738F8226C5142E3689B1A22
:10446000E3602268934202D2A3680B44E360022D0A
:1044700001D00020D5E726B1013E0020D1E7284633
:10448000CFE70020CDE70346026C6AB110B50846BD
:10449000D9681144D9609C68A14201D31968D960D8
:1044A000D968FCF711F810BD704738B50546FFF71D
:1044B00021FD95F8454064B203E000F0B3FF013CF4
:1044C00064B2002C08DD6B6A33B105F1240000F002
:1044D00015FF0028F3D0F0E7FF2385F84530FFF7FC
:1044E0002BFDFFF707FD95F8444064B203E000F0B0
:1044F00099FF013C64B2002C08DD2B6933B105F152
:10450000100000F0FBFE0028F3D0F0E7FF2385F851
:104510004430FFF711FD38BD38B5E0B10D46044613
:10452000FFF7E8FC2168E26B236C03FB0210A0603C
:104530000020A0636160013A02FB0313E360FF23E4
:1045400084F8443084F84530EDB9236963B9FFF746
:10455000F3FC012038BD4FF0500383F31188BFF303
:104560006F8FBFF34F8FFEE704F1100000F0C6FE1F
:104570000028ECD0084B4FF080521A60BFF34F8FE9
:10458000BFF36F8FE3E704F11000FFF703FC04F1C2
:104590002400FFF7FFFBDAE704ED00E038B51D4625
:1045A000049C0B4649B92460E06323640121204642
:1045B000FFF7B2FF84F84C5038BD2260F4E740B9F1
:1045C0004FF0500383F31188BFF36F8FBFF34F8F0A
:1045D000FEE730B585B01C46054653B192B189B9A6
:1045E0004FF0500383F31188BFF36F8FBFF34F8FEA
:1045F000FEE74FF0500383F31188BFF36F8FBFF3D3
:104600004F8FFEE76AB150230393039B502B13D0C7
:104610004FF0500383F31188BFF36F8FBFF34F8FB9
:10462000FEE70029EFD04FF0500383F31188BFF36A
:104630006F8FBFF34F8FFEE7039B012384F8463053
:1046400000949DF820302846FFF7A8FF204605B0CB
:1046500030BD0000F0B585B0019288B10E461D4610
:104660000446B1B1022D20D1E36B012B1DD04FF0D8
:10467000500383F31188BFF36F8FBFF34F8FFEE7B3
:104680004FF0500383F31188BFF36F8FBFF34F8F49
:10469000FEE7036C002BE5D04FF0500383F3118845
:1046A000BFF36F8FBFF34F8FFEE700F0C1FE0746E9
:1046B00058B9019B002B44D04FF0500383F311886D
:1046C000BFF36F8FBFF34F8FFEE7002739E02A4615
:1046D00031462046FFF79CFE626A6AB938B13C4B0E
:1046E0004FF080521A60BFF34F8FBFF36F8FFFF709
:1046F00023FC012005B0F0BD04F1240000F0FEFD14
:104700000028F4D0324B4FF080521A60BFF34F8F25
:10471000BFF36F8FEBE7FFF70FFC0020EAE702A87B
:1047200000F032FE012719E0002384F8443021E034
:10473000002384F8453023E02046FFF7B6FE00F062
:10474000B5FCFFF7D7FBA26BE36B9A42BFD3022DF8
:10475000BDD0019B002BDED0002FE0D0FFF7ECFB9B
:1047600000F008FCFFF7C6FB94F844305BB2B3F1ED
:10477000FF3FD9D094F845305BB2B3F1FF3FD7D0BB
:10478000FFF7DAFB01A902A800F00AFEC8B920462B
:10479000FFF722FE0028CFD0019904F1100000F0AD
:1047A00079FD2046FFF781FE00F080FC0028C8D18B
:1047B000074B4FF080521A60BFF34F8FBFF36F8FDC
:1047C000BFE72046FFF771FE00F070FC002091E784
:1047D00004ED00E02DE9F84390B1894690461F466C
:1047E0000446B1B1022F20D1E36B012B1DD04FF055
:1047F000500383F31188BFF36F8FBFF34F8FFEE732
:104800004FF0500383F31188BFF36F8FBFF34F8FC7
:10481000FEE7036C002BE5D04FF0500383F31188C3
:10482000BFF36F8FBFF34F8FFEE7FFF78DFCEFF302
:1048300011864FF0500383F31188BFF36F8FBFF3DE
:104840004F8FA26BE36B9A4206D3022F04D0002055
:1048500086F31188BDE8F88394F845506DB2A36BD8
:104860003A4649462046FFF7D3FDB5F1FF3F05D054
:104870006B1C5BB284F845300120E9E7636A0BB931
:104880000120E5E704F1240000F038FD30B1B8F173
:10489000000F05D00120C8F80000D9E70120D7E7B4
:1048A0000120D5E7F0B585B0019290B10E460446DF
:1048B000C1B100F0BDFD074600BB019B002B5CD0E1
:1048C0004FF0500383F31188BFF36F8FBFF34F8F07
:1048D000FEE74FF0500383F31188BFF36F8FBFF3F0
:1048E0004F8FFEE7036C002BE3D04FF0500383F3B0
:1048F0001188BFF36F8FBFF34F8FFEE700273CE0B7
:1049000031462046FFF7BFFD013DA563236923B96A
:10491000FFF712FB012005B0F0BD04F1100000F01C
:10492000EDFC0028F4D0354B4FF080521A60BFF3F5
:104930004F8FBFF36F8FEBE7FFF7FEFA0020EAE738
:1049400002A800F021FD012721E0002384F8443073
:1049500029E0002384F845302BE02046FFF7A5FD31
:1049600000F0A4FB09E02046FFF79FFD00F09EFB4E
:104970002046FFF740FD00283DD1FFF7BBFAA56BAD
:10498000002DBDD1019B002BD6D0002FD8D0FFF732
:10499000D3FA00F0EFFAFFF7ADFA94F844305BB2C7
:1049A000B3F1FF3FD1D094F845305BB2B3F1FF3F94
:1049B000CFD0FFF7C1FA01A902A800F0F1FC00284E
:1049C000D1D12046FFF717FD0028C6D0019904F188
:1049D000240000F05FFC2046FFF767FD00F066FB57
:1049E0000028CAD1054B4FF080521A60BFF34F8F99
:1049F000BFF36F8FC1E700208DE700BF04ED00E03B
:104A0000002300E00133072B0BD8064A52F833206D
:104A1000002AF7D1034A42F8331002EBC30358606F
:104A2000704770479859002070B504460D461646E9
:104A3000FFF760FA94F844305BB2B3F1FF3F0DD05A
:104A400094F845305BB2B3F1FF3F0BD0FFF774FA37
:104A5000A36B5BB12046FFF728FD70BD002384F8EF
:104A60004430EDE7002384F84530EFE7324629462D
:104A700004F1240000F026FCECE70000084B1B6862
:104A80001B6823B9074B4FF0FF321A607047044B85
:104A90001B68DB68DB685A68024B1A60704700BF0E
:104AA000DC590020805E00202DE9F04780460D464D
:104AB00017469946089EDDF824A00A9C9200A5217D
:104AC000206B00F061FF236B07F18042013A03EB9A
:104AD000820727F00707002D5FD000220F2A07D892
:104AE000A95CA31883F83410AB5C0BB10132F5E775
:104AF000002384F84330372E00D93726E662E66477
:104B000000252565201DFFF750F904F11800FFF777
:104B10004CF92461C6F13806A6616462C4F8805479
:104B200084F884544FF48562294604F1580000F05B
:104B30002BFF04F55173E36504F56B73236604F2F0
:104B40001443636601220023C4E9402343F20E3379
:104B5000A4F808314AF6CD33A4F80A3141F23423DF
:104B6000A4F80C314EF26D63A4F80E314DF6EC63EF
:104B7000A4F810310523A4F812310B23A4F8143142
:104B80004A4641463846FFF789F92060BAF1000FDE
:104B900001D0CAF80040BDE8F087002384F8343023
:104BA000A9E7000038B50024372C08D804EB8402AC
:104BB00093000E481844FFF7EDF80134F4E70C4D6C
:104BC0002846FFF7E7F80B4C2046FFF7E3F80A48C2
:104BD000FFF7E0F80948FFF7DDF80948FFF7DAF8D2
:104BE000084B1D60084B1C6038BD00BFE459002015
:104BF000585E00206C5E00208C5E0020B85E0020B5
:104C0000A45E0020DC590020E059002010B50446C5
:104C1000FFF770F9214A136801331360204B1B68BA
:104C20005BB1204B1B686BB91D4B1B68DA6AE36AEA
:104C30009A4207D81A4B1C6004E0194B1C60136899
:104C4000012B27D0184A1368013313606364E06AAC
:104C5000164B1B68984201D9144B186000EB80007A
:104C6000211D134B03EB8000FFF7A2F8FFF764F957
:104C70000C4B1B686BB10A4B1B68DA6AE36A9A42F9
:104C800007D20C4B4FF080521A60BFF34F8FBFF327
:104C90006F8F10BDFFF786FFD4E700BF445E002092
:104CA000D8590020A05E0020505E0020545E0020F5
:104CB000E459002004ED00E010B50446583000F03F
:104CC000C1FE94F8853463B1012B11D0022B0ED0B4
:104CD0004FF0500383F31188BFF36F8FBFF34F8FF3
:104CE000FEE7206BFFF73AFB2046FFF737FB10BDCE
:104CF0002046FFF733FBFAE70F4B1B68D3B110B523
:104D0000FFF7F8F80D4BDB68DC68201DFFF774F83F
:104D10000B4A1368013B1360074A1368013B136099
:104D2000FFF70AF92046FFF7C7FF034B1B68002B6C
:104D3000E6D110BD704700BF485E0020B85E00207D
:104D4000445E002008B5FFF7D7FF064B1B68012B18
:104D5000F9D9054B4FF080521A60BFF34F8FBFF364
:104D60006F8FF0E7E459002004ED00E070B50446D1
:104D70000D46174B1E68174B18680430FFF73CF8B8
:104D8000B4F1FF3F0DD03444124B1B685C60A64267
:104D900010D9114B18680F4B19680431FFF713F83D
:104DA00070BD002DEFD00B4B196804310B48FEF796
:104DB000FFFFF5E70A4B1868064B19680431FFF747
:104DC00002F8084B1B68A342EAD9064B1C60E7E7D0
:104DD000CC5E0020D8590020E0590020A45E0020BD
:104DE000DC590020805E002070B586B00B9D0C9CC5
:104DF00085B1C4B14FF491660496049EB6F5916FE7
:104E00001AD04FF0500383F31188BFF36F8FBFF3B5
:104E10004F8FFEE74FF0500383F31188BFF36F8F7E
:104E2000BFF34F8FFEE74FF0500383F31188BFF3BA
:104E30006F8FBFF34F8FFEE7049E2563022584F832
:104E4000855400250395029405AD01950A9D0095B2
:104E5000FFF72AFE2046FFF7D9FE059806B070BD81
:104E60002DE9F04385B00746884614461E4690005B
:104E7000FFF7F6F908B381464FF49160FFF7F0F9B8
:104E80000546B0B1C0F83090E5B1002385F885340F
:104E9000039302950D9B01930C9B0093334622468E
:104EA00041463846FFF700FE2846FFF7AFFE0120D7
:104EB00005E04846FFF752FAE6E74FF0FF3005B04D
:104EC000BDE8F0834FF0FF30F9E7000010B588B07F
:104ED00000240594069407AA06A905A8FEF742FF38
:104EE000059B0293069B019300942346079A1A4957
:104EF0001A48FFF779FF48B100F05EFB0346012B2B
:104F000006D0B3F1FF3F1DD008B010BD0023F6E777
:104F10004FF0500383F31188BFF36F8FBFF34F8FB0
:104F20000F4B1B6858330F4A13600F4B4FF0FF3283
:104F30001A600E4B01221A600D4B00221A60FFF717
:104F40007BF8E1E74FF0500383F31188BFF36F8FD5
:104F5000BFF34F8FFEE700BFF45E0008454D000829
:104F6000D859002010000020805E0020A05E0020A4
:104F7000CC5E0020024A136801331360704700BF03
:104F80004C5E0020014B1868704700BFCC5E0020CB
:104F9000F8B53B4B1B68002B6AD13A4B1D680135B5
:104FA0001D60C5B9384B1B681B6843B14FF05003F7
:104FB00083F31188BFF36F8FBFF34F8FFEE7324A41
:104FC0001168324B186810601960314A1368013358
:104FD0001360FFF753FD2F4B1B68AB4211D9002420
:104FE0002D4B1B68DB6A03EB83039A002B4B9B580A
:104FF000012B00D901242A4B1B68002B3DD0012432
:105000003BE0002416E0234B4FF0FF321A60E7E745
:10501000204A1360E4E703EB83039A0039461F48F4
:105020001044FEF7C5FEF26A1B4B1B68DB6A9A420E
:1050300000D30124144B1B681B68002BE3D0124BD8
:105040001B68DB68DE6873689D42E1D3371D384614
:10505000FEF7D2FEB36A1BB106F11800FEF7CCFED4
:10506000F36A104A12689342D5D90E4A1360D2E708
:105070000D4A13680133136000242046F8BD00BFB9
:105080004C5E0020CC5E0020DC590020E05900205E
:10509000845E0020805E0020D8590020E459002062
:1050A000D05E0020545E0020885E002038B5344B6E
:1050B0001B6843B94FF0500383F31188BFF36F8F20
:1050C000BFF34F8FFEE7FEF715FF2D4B1A68013A2D
:1050D0001A601B68002B4DD12A4B1B680BB90024AA
:1050E00049E00024284B1B681BB3274BDB68DC68B6
:1050F00004F11800FEF780FE251D2846FEF77CFE11
:10510000E06A224B1B68984201D9204B186000EBE3
:10511000800029461E4B03EB8000FEF749FEE26A41
:105120001C4B1B68DB6A9A42DCD31B4B01221A60C2
:10513000D8E70CB1FFF7A2FC184B1C6874B9164BEA
:105140001C68C4B1164B4FF080521A60BFF34F8FEA
:10515000BFF36F8F01240EE0013C07D0FFF718FF6B
:105160000028F9D00C4B01221A60F5E70B4B002206
:105170001A60E4E70024FEF7DFFE204638BD00BFDA
:105180004C5E0020445E00208C5E0020545E0020B7
:10519000E4590020D8590020D05E0020885E00200D
:1051A00004ED00E010B5A8B104460F4B1B6843B1F5
:1051B0004FF0500383F31188BFF36F8FBFF34F8F0E
:1051C000FEE7FFF7D7FE00212046FFF7CFFDFFF7F0
:1051D0006DFF38B9054B4FF080521A60BFF34F8F07
:1051E000BFF36F8F10BD00BF4C5E002004ED00E0E8
:1051F000224B1B681BB1224B01221A607047204BC7
:1052000000221A601F4B1B6803EB83018A001E49B2
:105210008A585AB90BB1013BF6E74FF0500383F3BC
:105220001188BFF36F8FBFF34F8FFEE710B403EB0E
:10523000830082000A4450684068506003EB830496
:10524000A200144608321144884211D003EB8302B5
:1052500091000D4A0A445268D1680C4A116009490C
:105260000B60136858330A4A13605DF8044B7047AB
:105270004068054A22445060E8E700BF4C5E0020C9
:10528000D05E0020545E0020E4590020D859002050
:105290001000002058B110B50C46094B19681831A0
:1052A000FEF791FD01212046FFF760FD10BD4FF094
:1052B000500383F31188BFF36F8FBFF34F8FFEE767
:1052C000D859002038B570B10C4615460A4B1968FC
:1052D0001831FEF76DFD0DB14FF0FF342946204621
:1052E000FFF744FD38BD4FF0500383F31188BFF33F
:1052F0006F8FBFF34F8FFEE7D859002038B5C368D2
:10530000DC6824B304F118052846FEF775FD184B38
:105310001B682BBB251D2846FEF76EFDE06A154B6A
:105320001B68984201D9134B186000EB8000294696
:10533000114B03EB8000FEF73BFDE26A0F4B1B684D
:10534000DB6A9A4211D901200D4B18600EE04FF034
:10535000500383F31188BFF36F8FBFF34F8FFEE7C6
:1053600029460848FEF724FDE7E7002038BD00BFC6
:105370004C5E0020545E0020E4590020D8590020E3
:10538000D05E00208C5E0020034B1B680360034B43
:105390001B684360704700BF845E0020CC5E002025
:1053A000F8B5C8B10C460546F9B1FEF7A3FD1B4B95
:1053B00019686B68C81A2268B2F1FF3F26D02F68BF
:1053C000174E3668B74201D08B4224D9824215D895
:1053D0000023236001241AE04FF0500383F3118867
:1053E000BFF36F8FBFF34F8FFEE74FF0500383F390
:1053F0001188BFF36F8FBFF34F8FFEE75B1A134423
:1054000023602846FFF7C0FF002400E00024FEF7D9
:1054100093FD2046F8BD0124F9E700BFCC5E0020D3
:10542000845E0020014B01221A607047D05E00208C
:10543000054B1B6833B1054B1B680BB1002070474F
:105440000220704701207047A05E00204C5E0020C3
:1054500000283BD038B504461E4B1B68834208D059
:105460004FF0500383F31188BFF36F8FBFF34F8F5B
:10547000FEE7036D43B94FF0500383F31188BFF388
:105480006F8FBFF34F8FFEE7013B0365C16AC26CAC
:1054900091421DD00BB1002038BD051D2846FEF7F6
:1054A000ABFCE06CE062C0F13803A3610A4B1B68FF
:1054B000984201D9084B186000EB80002946074B41
:1054C00003EB8000FEF774FC0120E5E70020704745
:1054D0000020E1E7D8590020545E0020E459002064
:1054E000064B1A6813682BB90123036023B9D368EC
:1054F000186870470023F8E700207047D45E00204A
:1055000008B54160006191420CD8D21A83699A4271
:1055100001D3012008BD011D094B1868FEF753FC9B
:105520000020F7E79A4201D2994206D2011D054BAD
:105530001868FEF748FC0020ECE70120EAE700BF0E
:10554000D85E0020D45E002030B583B0FEF7D2FCD8
:10555000114B1B681BB1FEF7EFFC03B030BD0F4DC4
:105560002846FEF717FC0E4C2046FEF713FC0D4BA9
:105570001D600D4B1C60002300930C4B0C4A102146
:105580000A20FFF71CF8044B18600028E3D00949F3
:10559000FFF736FADFE700BFF85F00207C5F0020EE
:1055A000905F0020D45E0020D85E0020A85F00201D
:1055B000DC5E0020FC5E000810B588B0FFF7C4FF79
:1055C000124B1B68CBB100240594069407AA06A9C8
:1055D00005A8FEF7D3FB059B0293069B01930223CC
:1055E00000932346079A0A490A48FFF7FDFB0A4A37
:1055F000106010B1012008B010BD4FF0500383F3CC
:105600001188BFF36F8FBFF34F8FFEE7F85F002065
:10561000045F00081D590008FC5F0020C0B110B5F0
:1056200084B014461A4603461648006838B3009101
:105630000194029305291CDCFFF7FAFE022810D022
:1056400000231A4669460F480068FFF703F814E084
:105650004FF0500383F31188BFF36F8FBFF34F8F69
:10566000FEE70023069A694606480068FEF7F2FF47
:1056700003E000236946FFF7ADF804B010BD002039
:10568000FBE700BFF85F002070B582B01B4B1B68C2
:105690001A6862B3DB681E68DC68251D2846FEF7C1
:1056A000ABFB236A2046984794F8283013F0040F88
:1056B000ECD0A36933449E4207D26360246129463B
:1056C0000E4B1868FEF77FFBE0E7002100910B46C8
:1056D00032462046FFF7A2FF0028D7D14FF05003F3
:1056E00083F31188BFF36F8FBFF34F8FFEE7044A38
:1056F000106802490860136002B070BDD45E0020DB
:10570000D85E002038B50546FFF73CFC0446074B41
:105710001B68834205D800232B60044B1C60204685
:1057200038BDFFF7B1FF01232B60F6E7A45F00202F
:1057300070B582B005460E46174B1B68DB68DC6807
:10574000201DFEF759FB94F8283013F0040F08D100
:1057500023F0010384F82830236A2046984702B0DA
:1057600070BDA1692B46324629442046FFF7C8FE8A
:105770000028F1D0002100910B462A462046FFF771
:105780004DFF0028E8D14FF0500383F31188BFF399
:105790006F8FBFF34F8FFEE7D45E002070B582B0ED
:1057A00006460C46FFF7E6FB01A8FFF7ABFF019B9F
:1057B00023BB05460CB9B04217D224B1114A126876
:1057C0001268CAB901242246711B0F4B1868FFF7F3
:1057D0002BF9FFF76BFC98B90C4B4FF080521A6015
:1057E000BFF34F8FBFF36F8F0AE0FFF75FFC2946CF
:1057F0003046FFF79DFF03E01C46E4E7FFF756FC49
:1058000002B070BDD85E0020F85F002004ED00E01B
:1058100010B588B006E007990698059B9847049B49
:10582000002B0BDA002204A93B4B1868FFF73AF86B
:1058300000286FD0049B002BF1DAECE7069C63692B
:1058400013B1201DFEF7D8FA03A8FFF75BFF049BF6
:10585000092BE7D8DFE803F00505053037500505CB
:10586000303794F8283043F0010384F82830059B42
:10587000A169024619442046FFF742FE0028D1D014
:10588000236A2046984794F8283013F0040FC9D0B3
:10589000A269002100910B46059802442046FFF7BB
:1058A000BDFE0028BED14FF0500383F31188BFF333
:1058B0006F8FBFF34F8FFEE794F8283023F001037A
:1058C00084F82830AEE794F8283043F0010384F8D8
:1058D00028300599A16131B10346024601442046B2
:1058E000FFF70EFE9EE74FF0500383F31188BFF3DE
:1058F0006F8FBFF34F8FFEE794F8283013F0020F3D
:1059000004D023F0010384F828308BE72046FEF70B
:1059100025FD87E708B010BDF85F002000B583B013
:1059200001A8FFF7DDFD0199FFF738FFFFF770FFD2
:10593000F6E70000014B1868704700BF1000002018
:1059400070B50D4E0D4D761BB61006D0002455F8DF
:10595000043B01349847A642F9D1094E094D761B04
:1059600000F094FAB61006D0002455F8043B013438
:105970009847A642F9D170BD185F0008185F00086B
:10598000205F0008185F0008F0B4860746D0541E58
:10599000002A3CD0CAB2034601E0013C37D303F8E9
:1059A000012B9D07F9D1032C2AD9CDB245EA052553
:1059B0000F2C45EA054534D9A4F1100222F00F0C52
:1059C00003F120071609674403F1100242E9045568
:1059D00042E902551032BA42F8D1721C14F00C0F91
:1059E00003EB021204F00F0613D0331F23F003035E
:1059F0000433134442F8045B9342FBD106F00304E2
:105A00002CB1CAB21C4403F8012B9C42FBD1F0BC60
:105A1000704734461346002CF3D1F8E7144603468A
:105A2000C1E71A462646E0E738B50C460968054640
:105A300009B1FFF7F9FF21462846BDE8384000F0DC
:105A4000B9B800BF1F4B1B6883423AD0C16C70B518
:105A5000054681B100268C593CB121462468284670
:105A600000F0A8F8002CF8D1E96C0436802EF2D1B1
:105A7000284600F09FF8296C11B1284600F09AF8EA
:105A8000D5F8484154B105F5A676B44206D0214672
:105A90002468284600F08EF8A642F8D1696D11B14D
:105AA000284600F087F8AB6B53B1EB6B284698475C
:105AB000D5F8E01221B12846BDE87040FFF7B4BF29
:105AC00070BD704710000020024B13B1024800F077
:105AD00005B8704700000000E95A0008002301469D
